{
  "_format": "hh-sol-artifact-1",
  "contractName": "NFTMarketV2",
  "sourceName": "contracts/NFTMarketV2.sol",
  "abi": [
    {
      "inputs": [],
      "stateMutability": "nonpayable",
      "type": "constructor"
    },
    {
      "anonymous": false,
      "inputs": [
        {
          "indexed": true,
          "internalType": "address",
          "name": "owner",
          "type": "address"
        },
        {
          "indexed": true,
          "internalType": "address",
          "name": "approved",
          "type": "address"
        },
        {
          "indexed": true,
          "internalType": "uint256",
          "name": "tokenId",
          "type": "uint256"
        }
      ],
      "name": "Approval",
      "type": "event"
    },
    {
      "anonymous": false,
      "inputs": [
        {
          "indexed": true,
          "internalType": "address",
          "name": "owner",
          "type": "address"
        },
        {
          "indexed": true,
          "internalType": "address",
          "name": "operator",
          "type": "address"
        },
        {
          "indexed": false,
          "internalType": "bool",
          "name": "approved",
          "type": "bool"
        }
      ],
      "name": "ApprovalForAll",
      "type": "event"
    },
    {
      "anonymous": false,
      "inputs": [
        {
          "indexed": true,
          "internalType": "uint256",
          "name": "tokenId",
          "type": "uint256"
        },
        {
          "indexed": false,
          "internalType": "address",
          "name": "seller",
          "type": "address"
        },
        {
          "indexed": false,
          "internalType": "address",
          "name": "owner",
          "type": "address"
        },
        {
          "indexed": false,
          "internalType": "uint256",
          "name": "price",
          "type": "uint256"
        },
        {
          "indexed": false,
          "internalType": "bool",
          "name": "sold",
          "type": "bool"
        }
      ],
      "name": "MarketItemCreated",
      "type": "event"
    },
    {
      "anonymous": false,
      "inputs": [
        {
          "indexed": true,
          "internalType": "address",
          "name": "from",
          "type": "address"
        },
        {
          "indexed": true,
          "internalType": "address",
          "name": "to",
          "type": "address"
        },
        {
          "indexed": true,
          "internalType": "uint256",
          "name": "tokenId",
          "type": "uint256"
        }
      ],
      "name": "Transfer",
      "type": "event"
    },
    {
      "inputs": [
        {
          "internalType": "address",
          "name": "to",
          "type": "address"
        },
        {
          "internalType": "uint256",
          "name": "tokenId",
          "type": "uint256"
        }
      ],
      "name": "approve",
      "outputs": [],
      "stateMutability": "nonpayable",
      "type": "function"
    },
    {
      "inputs": [
        {
          "internalType": "address",
          "name": "owner",
          "type": "address"
        }
      ],
      "name": "balanceOf",
      "outputs": [
        {
          "internalType": "uint256",
          "name": "",
          "type": "uint256"
        }
      ],
      "stateMutability": "view",
      "type": "function"
    },
    {
      "inputs": [
        {
          "internalType": "uint256",
          "name": "tokenId",
          "type": "uint256"
        },
        {
          "internalType": "uint256",
          "name": "price",
          "type": "uint256"
        }
      ],
      "name": "createMarketItem",
      "outputs": [],
      "stateMutability": "payable",
      "type": "function"
    },
    {
      "inputs": [
        {
          "internalType": "uint256",
          "name": "tokenId",
          "type": "uint256"
        }
      ],
      "name": "createMarketSale",
      "outputs": [],
      "stateMutability": "payable",
      "type": "function"
    },
    {
      "inputs": [
        {
          "internalType": "string",
          "name": "tokenURI",
          "type": "string"
        },
        {
          "internalType": "uint256",
          "name": "price",
          "type": "uint256"
        }
      ],
      "name": "createToken",
      "outputs": [
        {
          "internalType": "uint256",
          "name": "",
          "type": "uint256"
        }
      ],
      "stateMutability": "payable",
      "type": "function"
    },
    {
      "inputs": [],
      "name": "fetchItemsListed",
      "outputs": [
        {
          "components": [
            {
              "internalType": "uint256",
              "name": "tokenId",
              "type": "uint256"
            },
            {
              "internalType": "address payable",
              "name": "seller",
              "type": "address"
            },
            {
              "internalType": "address payable",
              "name": "owner",
              "type": "address"
            },
            {
              "internalType": "uint256",
              "name": "price",
              "type": "uint256"
            },
            {
              "internalType": "bool",
              "name": "sold",
              "type": "bool"
            }
          ],
          "internalType": "struct NFTMarketV2.MarketItem[]",
          "name": "",
          "type": "tuple[]"
        }
      ],
      "stateMutability": "view",
      "type": "function"
    },
    {
      "inputs": [],
      "name": "fetchMarketItems",
      "outputs": [
        {
          "components": [
            {
              "internalType": "uint256",
              "name": "tokenId",
              "type": "uint256"
            },
            {
              "internalType": "address payable",
              "name": "seller",
              "type": "address"
            },
            {
              "internalType": "address payable",
              "name": "owner",
              "type": "address"
            },
            {
              "internalType": "uint256",
              "name": "price",
              "type": "uint256"
            },
            {
              "internalType": "bool",
              "name": "sold",
              "type": "bool"
            }
          ],
          "internalType": "struct NFTMarketV2.MarketItem[]",
          "name": "",
          "type": "tuple[]"
        }
      ],
      "stateMutability": "view",
      "type": "function"
    },
    {
      "inputs": [],
      "name": "fetchMyNFTs",
      "outputs": [
        {
          "components": [
            {
              "internalType": "uint256",
              "name": "tokenId",
              "type": "uint256"
            },
            {
              "internalType": "address payable",
              "name": "seller",
              "type": "address"
            },
            {
              "internalType": "address payable",
              "name": "owner",
              "type": "address"
            },
            {
              "internalType": "uint256",
              "name": "price",
              "type": "uint256"
            },
            {
              "internalType": "bool",
              "name": "sold",
              "type": "bool"
            }
          ],
          "internalType": "struct NFTMarketV2.MarketItem[]",
          "name": "",
          "type": "tuple[]"
        }
      ],
      "stateMutability": "view",
      "type": "function"
    },
    {
      "inputs": [
        {
          "internalType": "uint256",
          "name": "tokenId",
          "type": "uint256"
        }
      ],
      "name": "getApproved",
      "outputs": [
        {
          "internalType": "address",
          "name": "",
          "type": "address"
        }
      ],
      "stateMutability": "view",
      "type": "function"
    },
    {
      "inputs": [],
      "name": "getListingPrice",
      "outputs": [
        {
          "internalType": "uint256",
          "name": "",
          "type": "uint256"
        }
      ],
      "stateMutability": "view",
      "type": "function"
    },
    {
      "inputs": [
        {
          "internalType": "address",
          "name": "owner",
          "type": "address"
        },
        {
          "internalType": "address",
          "name": "operator",
          "type": "address"
        }
      ],
      "name": "isApprovedForAll",
      "outputs": [
        {
          "internalType": "bool",
          "name": "",
          "type": "bool"
        }
      ],
      "stateMutability": "view",
      "type": "function"
    },
    {
      "inputs": [],
      "name": "name",
      "outputs": [
        {
          "internalType": "string",
          "name": "",
          "type": "string"
        }
      ],
      "stateMutability": "view",
      "type": "function"
    },
    {
      "inputs": [
        {
          "internalType": "uint256",
          "name": "tokenId",
          "type": "uint256"
        }
      ],
      "name": "ownerOf",
      "outputs": [
        {
          "internalType": "address",
          "name": "",
          "type": "address"
        }
      ],
      "stateMutability": "view",
      "type": "function"
    },
    {
      "inputs": [
        {
          "internalType": "uint256",
          "name": "tokenId",
          "type": "uint256"
        },
        {
          "internalType": "uint256",
          "name": "price",
          "type": "uint256"
        }
      ],
      "name": "resellToken",
      "outputs": [],
      "stateMutability": "payable",
      "type": "function"
    },
    {
      "inputs": [
        {
          "internalType": "address",
          "name": "from",
          "type": "address"
        },
        {
          "internalType": "address",
          "name": "to",
          "type": "address"
        },
        {
          "internalType": "uint256",
          "name": "tokenId",
          "type": "uint256"
        }
      ],
      "name": "safeTransferFrom",
      "outputs": [],
      "stateMutability": "nonpayable",
      "type": "function"
    },
    {
      "inputs": [
        {
          "internalType": "address",
          "name": "from",
          "type": "address"
        },
        {
          "internalType": "address",
          "name": "to",
          "type": "address"
        },
        {
          "internalType": "uint256",
          "name": "tokenId",
          "type": "uint256"
        },
        {
          "internalType": "bytes",
          "name": "data",
          "type": "bytes"
        }
      ],
      "name": "safeTransferFrom",
      "outputs": [],
      "stateMutability": "nonpayable",
      "type": "function"
    },
    {
      "inputs": [
        {
          "internalType": "address",
          "name": "operator",
          "type": "address"
        },
        {
          "internalType": "bool",
          "name": "approved",
          "type": "bool"
        }
      ],
      "name": "setApprovalForAll",
      "outputs": [],
      "stateMutability": "nonpayable",
      "type": "function"
    },
    {
      "inputs": [
        {
          "internalType": "bytes4",
          "name": "interfaceId",
          "type": "bytes4"
        }
      ],
      "name": "supportsInterface",
      "outputs": [
        {
          "internalType": "bool",
          "name": "",
          "type": "bool"
        }
      ],
      "stateMutability": "view",
      "type": "function"
    },
    {
      "inputs": [],
      "name": "symbol",
      "outputs": [
        {
          "internalType": "string",
          "name": "",
          "type": "string"
        }
      ],
      "stateMutability": "view",
      "type": "function"
    },
    {
      "inputs": [
        {
          "internalType": "uint256",
          "name": "tokenId",
          "type": "uint256"
        }
      ],
      "name": "tokenURI",
      "outputs": [
        {
          "internalType": "string",
          "name": "",
          "type": "string"
        }
      ],
      "stateMutability": "view",
      "type": "function"
    },
    {
      "inputs": [
        {
          "internalType": "address",
          "name": "from",
          "type": "address"
        },
        {
          "internalType": "address",
          "name": "to",
          "type": "address"
        },
        {
          "internalType": "uint256",
          "name": "tokenId",
          "type": "uint256"
        }
      ],
      "name": "transferFrom",
      "outputs": [],
      "stateMutability": "nonpayable",
      "type": "function"
    },
    {
      "inputs": [
        {
          "internalType": "uint256",
          "name": "_listingPrice",
          "type": "uint256"
        }
      ],
      "name": "updateListingPrice",
      "outputs": [],
      "stateMutability": "payable",
      "type": "function"
    }
  ],
  "bytecode": "0x60806040526658d15e176280006009553480156200001c57600080fd5b506040518060400160405280601281526020017f47726170686965204e465420546f6b656e7300000000000000000000000000008152506040518060400160405280600381526020017f474e54000000000000000000000000000000000000000000000000000000000081525081600090816200009a919062000370565b508060019081620000ac919062000370565b50505033600a60006101000a81548173ffffffffffffffffffffffffffffffffffffffff021916908373ffffffffffffffffffffffffffffffffffffffff16021790555062000457565b600081519050919050565b7f4e487b7100000000000000000000000000000000000000000000000000000000600052604160045260246000fd5b7f4e487b7100000000000000000000000000000000000000000000000000000000600052602260045260246000fd5b600060028204905060018216806200017857607f821691505b6020821081036200018e576200018d62000130565b5b50919050565b60008190508160005260206000209050919050565b60006020601f8301049050919050565b600082821b905092915050565b600060088302620001f87fffffffffffffffffffffffffffffffffffffffffffffffffffffffffffffffff82620001b9565b620002048683620001b9565b95508019841693508086168417925050509392505050565b6000819050919050565b6000819050919050565b6000620002516200024b62000245846200021c565b62000226565b6200021c565b9050919050565b6000819050919050565b6200026d8362000230565b620002856200027c8262000258565b848454620001c6565b825550505050565b600090565b6200029c6200028d565b620002a981848462000262565b505050565b5b81811015620002d157620002c560008262000292565b600181019050620002af565b5050565b601f8211156200032057620002ea8162000194565b620002f584620001a9565b8101602085101562000305578190505b6200031d6200031485620001a9565b830182620002ae565b50505b505050565b600082821c905092915050565b6000620003456000198460080262000325565b1980831691505092915050565b600062000360838362000332565b9150826002028217905092915050565b6200037b82620000f6565b67ffffffffffffffff81111562000397576200039662000101565b5b620003a382546200015f565b620003b0828285620002d5565b600060209050601f831160018114620003e85760008415620003d3578287015190505b620003df858262000352565b8655506200044f565b601f198416620003f88662000194565b60005b828110156200042257848901518255600182019150602085019450602081019050620003fb565b868310156200044257848901516200043e601f89168262000332565b8355505b6001600288020188555050505b505050505050565b61438080620004676000396000f3fe6080604052600436106101355760003560e01c80636352211e116100ab578063ae677aa31161006f578063ae677aa314610420578063b88d4fde1461043c578063be9af53614610465578063c87b56dd14610481578063e219fc75146104be578063e985e9c5146104da57610135565b80636352211e1461032257806370a082311461035f57806372b3b6201461039c57806395d89b41146103cc578063a22cb465146103f757610135565b806312e85585116100fd57806312e8558514610233578063202e37401461025e57806323b872dd14610289578063361c1995146102b257806342842e0e146102ce57806345f8fa80146102f757610135565b806301ffc9a71461013a57806306fdde0314610177578063081812fc146101a2578063095ea7b3146101df5780630f08efe014610208575b600080fd5b34801561014657600080fd5b50610161600480360381019061015c9190612c44565b610517565b60405161016e9190612c8c565b60405180910390f35b34801561018357600080fd5b5061018c6105f9565b6040516101999190612d37565b60405180910390f35b3480156101ae57600080fd5b506101c960048036038101906101c49190612d8f565b61068b565b6040516101d69190612dfd565b60405180910390f35b3480156101eb57600080fd5b5061020660048036038101906102019190612e44565b6106d1565b005b34801561021457600080fd5b5061021d6107e8565b60405161022a9190612fda565b60405180910390f35b34801561023f57600080fd5b50610248610a50565b604051610255919061300b565b60405180910390f35b34801561026a57600080fd5b50610273610a5a565b6040516102809190612fda565b60405180910390f35b34801561029557600080fd5b506102b060048036038101906102ab9190613026565b610d46565b005b6102cc60048036038101906102c79190613079565b610da6565b005b3480156102da57600080fd5b506102f560048036038101906102f09190613026565b610fa9565b005b34801561030357600080fd5b5061030c610fc9565b6040516103199190612fda565b60405180910390f35b34801561032e57600080fd5b5061034960048036038101906103449190612d8f565b6112b5565b6040516103569190612dfd565b60405180910390f35b34801561036b57600080fd5b50610386600480360381019061038191906130b9565b61133b565b604051610393919061300b565b60405180910390f35b6103b660048036038101906103b1919061321b565b6113f2565b6040516103c3919061300b565b60405180910390f35b3480156103d857600080fd5b506103e1611434565b6040516103ee9190612d37565b60405180910390f35b34801561040357600080fd5b5061041e600480360381019061041991906132a3565b6114c6565b005b61043a60048036038101906104359190612d8f565b6114dc565b005b34801561044857600080fd5b50610463600480360381019061045e9190613384565b611576565b005b61047f600480360381019061047a9190612d8f565b6115d8565b005b34801561048d57600080fd5b506104a860048036038101906104a39190612d8f565b611816565b6040516104b59190612d37565b60405180910390f35b6104d860048036038101906104d39190613079565b611928565b005b3480156104e657600080fd5b5061050160048036038101906104fc9190613407565b611b1d565b60405161050e9190612c8c565b60405180910390f35b60007f80ac58cd000000000000000000000000000000000000000000000000000000007bffffffffffffffffffffffffffffffffffffffffffffffffffffffff1916827bffffffffffffffffffffffffffffffffffffffffffffffffffffffff191614806105e257507f5b5e139f000000000000000000000000000000000000000000000000000000007bffffffffffffffffffffffffffffffffffffffffffffffffffffffff1916827bffffffffffffffffffffffffffffffffffffffffffffffffffffffff1916145b806105f257506105f182611bb1565b5b9050919050565b60606000805461060890613476565b80601f016020809104026020016040519081016040528092919081815260200182805461063490613476565b80156106815780601f1061065657610100808354040283529160200191610681565b820191906000526020600020905b81548152906001019060200180831161066457829003601f168201915b5050505050905090565b600061069682611c1b565b6004600083815260200190815260200160002060009054906101000a900473ffffffffffffffffffffffffffffffffffffffff169050919050565b60006106dc826112b5565b90508073ffffffffffffffffffffffffffffffffffffffff168373ffffffffffffffffffffffffffffffffffffffff160361074c576040517f08c379a000000000000000000000000000000000000000000000000000000000815260040161074390613519565b60405180910390fd5b8073ffffffffffffffffffffffffffffffffffffffff1661076b611c66565b73ffffffffffffffffffffffffffffffffffffffff16148061079a575061079981610794611c66565b611b1d565b5b6107d9576040517f08c379a00000000000000000000000000000000000000000000000000000000081526004016107d0906135ab565b60405180910390fd5b6107e38383611c6e565b505050565b606060006107f66007611d27565b905060006108046008611d27565b61080e6007611d27565b61081891906135fa565b90506000808267ffffffffffffffff811115610837576108366130f0565b5b60405190808252806020026020018201604052801561087057816020015b61085d612b7b565b8152602001906001900390816108555790505b50905060005b84811015610a45573073ffffffffffffffffffffffffffffffffffffffff16600b60006001846108a6919061362e565b815260200190815260200160002060020160009054906101000a900473ffffffffffffffffffffffffffffffffffffffff1673ffffffffffffffffffffffffffffffffffffffff1603610a32576000600182610902919061362e565b90506000600b60008381526020019081526020016000209050806040518060a0016040529081600082015481526020016001820160009054906101000a900473ffffffffffffffffffffffffffffffffffffffff1673ffffffffffffffffffffffffffffffffffffffff1673ffffffffffffffffffffffffffffffffffffffff1681526020016002820160009054906101000a900473ffffffffffffffffffffffffffffffffffffffff1673ffffffffffffffffffffffffffffffffffffffff1673ffffffffffffffffffffffffffffffffffffffff168152602001600382015481526020016004820160009054906101000a900460ff161515151581525050848681518110610a1557610a14613662565b5b6020026020010181905250600185610a2d919061362e565b945050505b8080610a3d90613691565b915050610876565b508094505050505090565b6000600954905090565b60606000610a686007611d27565b905060008060005b83811015610b10573373ffffffffffffffffffffffffffffffffffffffff16600b6000600184610aa0919061362e565b815260200190815260200160002060020160009054906101000a900473ffffffffffffffffffffffffffffffffffffffff1673ffffffffffffffffffffffffffffffffffffffff1603610afd57600183610afa919061362e565b92505b8080610b0890613691565b915050610a70565b5060008267ffffffffffffffff811115610b2d57610b2c6130f0565b5b604051908082528060200260200182016040528015610b6657816020015b610b53612b7b565b815260200190600190039081610b4b5790505b50905060005b84811015610d3b573373ffffffffffffffffffffffffffffffffffffffff16600b6000600184610b9c919061362e565b815260200190815260200160002060020160009054906101000a900473ffffffffffffffffffffffffffffffffffffffff1673ffffffffffffffffffffffffffffffffffffffff1603610d28576000600182610bf8919061362e565b90506000600b60008381526020019081526020016000209050806040518060a0016040529081600082015481526020016001820160009054906101000a900473ffffffffffffffffffffffffffffffffffffffff1673ffffffffffffffffffffffffffffffffffffffff1673ffffffffffffffffffffffffffffffffffffffff1681526020016002820160009054906101000a900473ffffffffffffffffffffffffffffffffffffffff1673ffffffffffffffffffffffffffffffffffffffff1673ffffffffffffffffffffffffffffffffffffffff168152602001600382015481526020016004820160009054906101000a900460ff161515151581525050848681518110610d0b57610d0a613662565b5b6020026020010181905250600185610d23919061362e565b945050505b8080610d3390613691565b915050610b6c565b508094505050505090565b610d57610d51611c66565b82611d35565b610d96576040517f08c379a0000000000000000000000000000000000000000000000000000000008152600401610d8d9061374b565b60405180910390fd5b610da1838383611dca565b505050565b60008111610de9576040517f08c379a0000000000000000000000000000000000000000000000000000000008152600401610de0906137b7565b60405180910390fd5b6009543414610e2d576040517f08c379a0000000000000000000000000000000000000000000000000000000008152600401610e2490613849565b60405180910390fd5b6040518060a001604052808381526020013373ffffffffffffffffffffffffffffffffffffffff1681526020013073ffffffffffffffffffffffffffffffffffffffff16815260200182815260200160001515815250600b60008481526020019081526020016000206000820151816000015560208201518160010160006101000a81548173ffffffffffffffffffffffffffffffffffffffff021916908373ffffffffffffffffffffffffffffffffffffffff16021790555060408201518160020160006101000a81548173ffffffffffffffffffffffffffffffffffffffff021916908373ffffffffffffffffffffffffffffffffffffffff1602179055506060820151816003015560808201518160040160006101000a81548160ff021916908315150217905550905050610f66333084611dca565b817fb640004f1d14576d0c209e240cad0410e0d8c0c33a09375861fbadae2588a98d3330846000604051610f9d9493929190613869565b60405180910390a25050565b610fc483838360405180602001604052806000815250611576565b505050565b60606000610fd76007611d27565b905060008060005b8381101561107f573373ffffffffffffffffffffffffffffffffffffffff16600b600060018461100f919061362e565b815260200190815260200160002060010160009054906101000a900473ffffffffffffffffffffffffffffffffffffffff1673ffffffffffffffffffffffffffffffffffffffff160361106c57600183611069919061362e565b92505b808061107790613691565b915050610fdf565b5060008267ffffffffffffffff81111561109c5761109b6130f0565b5b6040519080825280602002602001820160405280156110d557816020015b6110c2612b7b565b8152602001906001900390816110ba5790505b50905060005b848110156112aa573373ffffffffffffffffffffffffffffffffffffffff16600b600060018461110b919061362e565b815260200190815260200160002060010160009054906101000a900473ffffffffffffffffffffffffffffffffffffffff1673ffffffffffffffffffffffffffffffffffffffff1603611297576000600182611167919061362e565b90506000600b60008381526020019081526020016000209050806040518060a0016040529081600082015481526020016001820160009054906101000a900473ffffffffffffffffffffffffffffffffffffffff1673ffffffffffffffffffffffffffffffffffffffff1673ffffffffffffffffffffffffffffffffffffffff1681526020016002820160009054906101000a900473ffffffffffffffffffffffffffffffffffffffff1673ffffffffffffffffffffffffffffffffffffffff1673ffffffffffffffffffffffffffffffffffffffff168152602001600382015481526020016004820160009054906101000a900460ff16151515158152505084868151811061127a57611279613662565b5b6020026020010181905250600185611292919061362e565b945050505b80806112a290613691565b9150506110db565b508094505050505090565b6000806112c1836120c3565b9050600073ffffffffffffffffffffffffffffffffffffffff168173ffffffffffffffffffffffffffffffffffffffff1603611332576040517f08c379a0000000000000000000000000000000000000000000000000000000008152600401611329906138fa565b60405180910390fd5b80915050919050565b60008073ffffffffffffffffffffffffffffffffffffffff168273ffffffffffffffffffffffffffffffffffffffff16036113ab576040517f08c379a00000000000000000000000000000000000000000000000000000000081526004016113a29061398c565b60405180910390fd5b600360008373ffffffffffffffffffffffffffffffffffffffff1673ffffffffffffffffffffffffffffffffffffffff168152602001908152602001600020549050919050565b60006113fe6007612100565b600061140a6007611d27565b90506114163382612116565b6114208185612333565b61142a8184610da6565b8091505092915050565b60606001805461144390613476565b80601f016020809104026020016040519081016040528092919081815260200182805461146f90613476565b80156114bc5780601f10611491576101008083540402835291602001916114bc565b820191906000526020600020905b81548152906001019060200180831161149f57829003601f168201915b5050505050905090565b6114d86114d1611c66565b83836123a0565b5050565b3373ffffffffffffffffffffffffffffffffffffffff16600a60009054906101000a900473ffffffffffffffffffffffffffffffffffffffff1673ffffffffffffffffffffffffffffffffffffffff161461156c576040517f08c379a000000000000000000000000000000000000000000000000000000000815260040161156390613a1e565b60405180910390fd5b8060098190555050565b611587611581611c66565b83611d35565b6115c6576040517f08c379a00000000000000000000000000000000000000000000000000000000081526004016115bd9061374b565b60405180910390fd5b6115d28484848461250c565b50505050565b6000600b60008381526020019081526020016000206003015490506000600b600084815260200190815260200160002060010160009054906101000a900473ffffffffffffffffffffffffffffffffffffffff169050813414611670576040517f08c379a000000000000000000000000000000000000000000000000000000000815260040161166790613ab0565b60405180910390fd5b33600b600085815260200190815260200160002060020160006101000a81548173ffffffffffffffffffffffffffffffffffffffff021916908373ffffffffffffffffffffffffffffffffffffffff1602179055506001600b600085815260200190815260200160002060040160006101000a81548160ff0219169083151502179055506000600b600085815260200190815260200160002060010160006101000a81548173ffffffffffffffffffffffffffffffffffffffff021916908373ffffffffffffffffffffffffffffffffffffffff1602179055506117546008612100565b61175f303385611dca565b600a60009054906101000a900473ffffffffffffffffffffffffffffffffffffffff1673ffffffffffffffffffffffffffffffffffffffff166108fc6009549081150290604051600060405180830381858888f193505050501580156117c9573d6000803e3d6000fd5b508073ffffffffffffffffffffffffffffffffffffffff166108fc349081150290604051600060405180830381858888f19350505050158015611810573d6000803e3d6000fd5b50505050565b606061182182611c1b565b600060066000848152602001908152602001600020805461184190613476565b80601f016020809104026020016040519081016040528092919081815260200182805461186d90613476565b80156118ba5780601f1061188f576101008083540402835291602001916118ba565b820191906000526020600020905b81548152906001019060200180831161189d57829003601f168201915b5050505050905060006118cb612568565b905060008151036118e0578192505050611923565b6000825111156119155780826040516020016118fd929190613b0c565b60405160208183030381529060405292505050611923565b61191e8461257f565b925050505b919050565b3373ffffffffffffffffffffffffffffffffffffffff16600b600084815260200190815260200160002060020160009054906101000a900473ffffffffffffffffffffffffffffffffffffffff1673ffffffffffffffffffffffffffffffffffffffff16146119cc576040517f08c379a00000000000000000000000000000000000000000000000000000000081526004016119c390613ba2565b60405180910390fd5b6009543414611a10576040517f08c379a0000000000000000000000000000000000000000000000000000000008152600401611a0790613849565b60405180910390fd5b6000600b600084815260200190815260200160002060040160006101000a81548160ff02191690831515021790555080600b60008481526020019081526020016000206003018190555033600b600084815260200190815260200160002060010160006101000a81548173ffffffffffffffffffffffffffffffffffffffff021916908373ffffffffffffffffffffffffffffffffffffffff16021790555030600b600084815260200190815260200160002060020160006101000a81548173ffffffffffffffffffffffffffffffffffffffff021916908373ffffffffffffffffffffffffffffffffffffffff160217905550611b0e60086125e7565b611b19333084611dca565b5050565b6000600560008473ffffffffffffffffffffffffffffffffffffffff1673ffffffffffffffffffffffffffffffffffffffff16815260200190815260200160002060008373ffffffffffffffffffffffffffffffffffffffff1673ffffffffffffffffffffffffffffffffffffffff16815260200190815260200160002060009054906101000a900460ff16905092915050565b60007f01ffc9a7000000000000000000000000000000000000000000000000000000007bffffffffffffffffffffffffffffffffffffffffffffffffffffffff1916827bffffffffffffffffffffffffffffffffffffffffffffffffffffffff1916149050919050565b611c2481612643565b611c63576040517f08c379a0000000000000000000000000000000000000000000000000000000008152600401611c5a906138fa565b60405180910390fd5b50565b600033905090565b816004600083815260200190815260200160002060006101000a81548173ffffffffffffffffffffffffffffffffffffffff021916908373ffffffffffffffffffffffffffffffffffffffff160217905550808273ffffffffffffffffffffffffffffffffffffffff16611ce1836112b5565b73ffffffffffffffffffffffffffffffffffffffff167f8c5be1e5ebec7d5bd14f71427d1e84f3dd0314c0f7b2291e5b200ac8c7c3b92560405160405180910390a45050565b600081600001549050919050565b600080611d41836112b5565b90508073ffffffffffffffffffffffffffffffffffffffff168473ffffffffffffffffffffffffffffffffffffffff161480611d835750611d828185611b1d565b5b80611dc157508373ffffffffffffffffffffffffffffffffffffffff16611da98461068b565b73ffffffffffffffffffffffffffffffffffffffff16145b91505092915050565b8273ffffffffffffffffffffffffffffffffffffffff16611dea826112b5565b73ffffffffffffffffffffffffffffffffffffffff1614611e40576040517f08c379a0000000000000000000000000000000000000000000000000000000008152600401611e3790613c34565b60405180910390fd5b600073ffffffffffffffffffffffffffffffffffffffff168273ffffffffffffffffffffffffffffffffffffffff1603611eaf576040517f08c379a0000000000000000000000000000000000000000000000000000000008152600401611ea690613cc6565b60405180910390fd5b611ebc8383836001612684565b8273ffffffffffffffffffffffffffffffffffffffff16611edc826112b5565b73ffffffffffffffffffffffffffffffffffffffff1614611f32576040517f08c379a0000000000000000000000000000000000000000000000000000000008152600401611f2990613c34565b60405180910390fd5b6004600082815260200190815260200160002060006101000a81549073ffffffffffffffffffffffffffffffffffffffff02191690556001600360008573ffffffffffffffffffffffffffffffffffffffff1673ffffffffffffffffffffffffffffffffffffffff168152602001908152602001600020600082825403925050819055506001600360008473ffffffffffffffffffffffffffffffffffffffff1673ffffffffffffffffffffffffffffffffffffffff16815260200190815260200160002060008282540192505081905550816002600083815260200190815260200160002060006101000a81548173ffffffffffffffffffffffffffffffffffffffff021916908373ffffffffffffffffffffffffffffffffffffffff160217905550808273ffffffffffffffffffffffffffffffffffffffff168473ffffffffffffffffffffffffffffffffffffffff167fddf252ad1be2c89b69c2b068fc378daa952ba7f163c4a11628f55a4df523b3ef60405160405180910390a46120be83838360016127aa565b505050565b60006002600083815260200190815260200160002060009054906101000a900473ffffffffffffffffffffffffffffffffffffffff169050919050565b6001816000016000828254019250508190555050565b600073ffffffffffffffffffffffffffffffffffffffff168273ffffffffffffffffffffffffffffffffffffffff1603612185576040517f08c379a000000000000000000000000000000000000000000000000000000000815260040161217c90613d32565b60405180910390fd5b61218e81612643565b156121ce576040517f08c379a00000000000000000000000000000000000000000000000000000000081526004016121c590613d9e565b60405180910390fd5b6121dc600083836001612684565b6121e581612643565b15612225576040517f08c379a000000000000000000000000000000000000000000000000000000000815260040161221c90613d9e565b60405180910390fd5b6001600360008473ffffffffffffffffffffffffffffffffffffffff1673ffffffffffffffffffffffffffffffffffffffff16815260200190815260200160002060008282540192505081905550816002600083815260200190815260200160002060006101000a81548173ffffffffffffffffffffffffffffffffffffffff021916908373ffffffffffffffffffffffffffffffffffffffff160217905550808273ffffffffffffffffffffffffffffffffffffffff16600073ffffffffffffffffffffffffffffffffffffffff167fddf252ad1be2c89b69c2b068fc378daa952ba7f163c4a11628f55a4df523b3ef60405160405180910390a461232f6000838360016127aa565b5050565b61233c82612643565b61237b576040517f08c379a000000000000000000000000000000000000000000000000000000000815260040161237290613e30565b60405180910390fd5b8060066000848152602001908152602001600020908161239b9190613ffc565b505050565b8173ffffffffffffffffffffffffffffffffffffffff168373ffffffffffffffffffffffffffffffffffffffff160361240e576040517f08c379a00000000000000000000000000000000000000000000000000000000081526004016124059061411a565b60405180910390fd5b80600560008573ffffffffffffffffffffffffffffffffffffffff1673ffffffffffffffffffffffffffffffffffffffff16815260200190815260200160002060008473ffffffffffffffffffffffffffffffffffffffff1673ffffffffffffffffffffffffffffffffffffffff16815260200190815260200160002060006101000a81548160ff0219169083151502179055508173ffffffffffffffffffffffffffffffffffffffff168373ffffffffffffffffffffffffffffffffffffffff167f17307eab39ab6107e8899845ad3d59bd9653f200f220920489ca2b5937696c31836040516124ff9190612c8c565b60405180910390a3505050565b612517848484611dca565b612523848484846127b0565b612562576040517f08c379a0000000000000000000000000000000000000000000000000000000008152600401612559906141ac565b60405180910390fd5b50505050565b606060405180602001604052806000815250905090565b606061258a82611c1b565b6000612594612568565b905060008151116125b457604051806020016040528060008152506125df565b806125be84612937565b6040516020016125cf929190613b0c565b6040516020818303038152906040525b915050919050565b60008160000154905060008111612633576040517f08c379a000000000000000000000000000000000000000000000000000000000815260040161262a90614218565b60405180910390fd5b6001810382600001819055505050565b60008073ffffffffffffffffffffffffffffffffffffffff16612665836120c3565b73ffffffffffffffffffffffffffffffffffffffff1614159050919050565b60018111156127a457600073ffffffffffffffffffffffffffffffffffffffff168473ffffffffffffffffffffffffffffffffffffffff16146127185780600360008673ffffffffffffffffffffffffffffffffffffffff1673ffffffffffffffffffffffffffffffffffffffff168152602001908152602001600020600082825461271091906135fa565b925050819055505b600073ffffffffffffffffffffffffffffffffffffffff168373ffffffffffffffffffffffffffffffffffffffff16146127a35780600360008573ffffffffffffffffffffffffffffffffffffffff1673ffffffffffffffffffffffffffffffffffffffff168152602001908152602001600020600082825461279b919061362e565b925050819055505b5b50505050565b50505050565b60006127d18473ffffffffffffffffffffffffffffffffffffffff16612a05565b1561292a578373ffffffffffffffffffffffffffffffffffffffff1663150b7a026127fa611c66565b8786866040518563ffffffff1660e01b815260040161281c949392919061428d565b6020604051808303816000875af192505050801561285857506040513d601f19601f8201168201806040525081019061285591906142ee565b60015b6128da573d8060008114612888576040519150601f19603f3d011682016040523d82523d6000602084013e61288d565b606091505b5060008151036128d2576040517f08c379a00000000000000000000000000000000000000000000000000000000081526004016128c9906141ac565b60405180910390fd5b805181602001fd5b63150b7a0260e01b7bffffffffffffffffffffffffffffffffffffffffffffffffffffffff1916817bffffffffffffffffffffffffffffffffffffffffffffffffffffffff19161491505061292f565b600190505b949350505050565b60606000600161294684612a28565b01905060008167ffffffffffffffff811115612965576129646130f0565b5b6040519080825280601f01601f1916602001820160405280156129975781602001600182028036833780820191505090505b509050600082602001820190505b6001156129fa578080600190039150507f3031323334353637383961626364656600000000000000000000000000000000600a86061a8153600a85816129ee576129ed61431b565b5b049450600085036129a5575b819350505050919050565b6000808273ffffffffffffffffffffffffffffffffffffffff163b119050919050565b600080600090507a184f03e93ff9f4daa797ed6e38ed64bf6a1f0100000000000000008310612a86577a184f03e93ff9f4daa797ed6e38ed64bf6a1f0100000000000000008381612a7c57612a7b61431b565b5b0492506040810190505b6d04ee2d6d415b85acef81000000008310612ac3576d04ee2d6d415b85acef81000000008381612ab957612ab861431b565b5b0492506020810190505b662386f26fc100008310612af257662386f26fc100008381612ae857612ae761431b565b5b0492506010810190505b6305f5e1008310612b1b576305f5e1008381612b1157612b1061431b565b5b0492506008810190505b6127108310612b40576127108381612b3657612b3561431b565b5b0492506004810190505b60648310612b635760648381612b5957612b5861431b565b5b0492506002810190505b600a8310612b72576001810190505b80915050919050565b6040518060a0016040528060008152602001600073ffffffffffffffffffffffffffffffffffffffff168152602001600073ffffffffffffffffffffffffffffffffffffffff168152602001600081526020016000151581525090565b6000604051905090565b600080fd5b600080fd5b60007fffffffff0000000000000000000000000000000000000000000000000000000082169050919050565b612c2181612bec565b8114612c2c57600080fd5b50565b600081359050612c3e81612c18565b92915050565b600060208284031215612c5a57612c59612be2565b5b6000612c6884828501612c2f565b91505092915050565b60008115159050919050565b612c8681612c71565b82525050565b6000602082019050612ca16000830184612c7d565b92915050565b600081519050919050565b600082825260208201905092915050565b60005b83811015612ce1578082015181840152602081019050612cc6565b60008484015250505050565b6000601f19601f8301169050919050565b6000612d0982612ca7565b612d138185612cb2565b9350612d23818560208601612cc3565b612d2c81612ced565b840191505092915050565b60006020820190508181036000830152612d518184612cfe565b905092915050565b6000819050919050565b612d6c81612d59565b8114612d7757600080fd5b50565b600081359050612d8981612d63565b92915050565b600060208284031215612da557612da4612be2565b5b6000612db384828501612d7a565b91505092915050565b600073ffffffffffffffffffffffffffffffffffffffff82169050919050565b6000612de782612dbc565b9050919050565b612df781612ddc565b82525050565b6000602082019050612e126000830184612dee565b92915050565b612e2181612ddc565b8114612e2c57600080fd5b50565b600081359050612e3e81612e18565b92915050565b60008060408385031215612e5b57612e5a612be2565b5b6000612e6985828601612e2f565b9250506020612e7a85828601612d7a565b9150509250929050565b600081519050919050565b600082825260208201905092915050565b6000819050602082019050919050565b612eb981612d59565b82525050565b6000612eca82612dbc565b9050919050565b612eda81612ebf565b82525050565b612ee981612c71565b82525050565b60a082016000820151612f056000850182612eb0565b506020820151612f186020850182612ed1565b506040820151612f2b6040850182612ed1565b506060820151612f3e6060850182612eb0565b506080820151612f516080850182612ee0565b50505050565b6000612f638383612eef565b60a08301905092915050565b6000602082019050919050565b6000612f8782612e84565b612f918185612e8f565b9350612f9c83612ea0565b8060005b83811015612fcd578151612fb48882612f57565b9750612fbf83612f6f565b925050600181019050612fa0565b5085935050505092915050565b60006020820190508181036000830152612ff48184612f7c565b905092915050565b61300581612d59565b82525050565b60006020820190506130206000830184612ffc565b92915050565b60008060006060848603121561303f5761303e612be2565b5b600061304d86828701612e2f565b935050602061305e86828701612e2f565b925050604061306f86828701612d7a565b9150509250925092565b600080604083850312156130905761308f612be2565b5b600061309e85828601612d7a565b92505060206130af85828601612d7a565b9150509250929050565b6000602082840312156130cf576130ce612be2565b5b60006130dd84828501612e2f565b91505092915050565b600080fd5b600080fd5b7f4e487b7100000000000000000000000000000000000000000000000000000000600052604160045260246000fd5b61312882612ced565b810181811067ffffffffffffffff82111715613147576131466130f0565b5b80604052505050565b600061315a612bd8565b9050613166828261311f565b919050565b600067ffffffffffffffff821115613186576131856130f0565b5b61318f82612ced565b9050602081019050919050565b82818337600083830152505050565b60006131be6131b98461316b565b613150565b9050828152602081018484840111156131da576131d96130eb565b5b6131e584828561319c565b509392505050565b600082601f830112613202576132016130e6565b5b81356132128482602086016131ab565b91505092915050565b6000806040838503121561323257613231612be2565b5b600083013567ffffffffffffffff8111156132505761324f612be7565b5b61325c858286016131ed565b925050602061326d85828601612d7a565b9150509250929050565b61328081612c71565b811461328b57600080fd5b50565b60008135905061329d81613277565b92915050565b600080604083850312156132ba576132b9612be2565b5b60006132c885828601612e2f565b92505060206132d98582860161328e565b9150509250929050565b600067ffffffffffffffff8211156132fe576132fd6130f0565b5b61330782612ced565b9050602081019050919050565b6000613327613322846132e3565b613150565b905082815260208101848484011115613343576133426130eb565b5b61334e84828561319c565b509392505050565b600082601f83011261336b5761336a6130e6565b5b813561337b848260208601613314565b91505092915050565b6000806000806080858703121561339e5761339d612be2565b5b60006133ac87828801612e2f565b94505060206133bd87828801612e2f565b93505060406133ce87828801612d7a565b925050606085013567ffffffffffffffff8111156133ef576133ee612be7565b5b6133fb87828801613356565b91505092959194509250565b6000806040838503121561341e5761341d612be2565b5b600061342c85828601612e2f565b925050602061343d85828601612e2f565b9150509250929050565b7f4e487b7100000000000000000000000000000000000000000000000000000000600052602260045260246000fd5b6000600282049050600182168061348e57607f821691505b6020821081036134a1576134a0613447565b5b50919050565b7f4552433732313a20617070726f76616c20746f2063757272656e74206f776e6560008201527f7200000000000000000000000000000000000000000000000000000000000000602082015250565b6000613503602183612cb2565b915061350e826134a7565b604082019050919050565b60006020820190508181036000830152613532816134f6565b9050919050565b7f4552433732313a20617070726f76652063616c6c6572206973206e6f7420746f60008201527f6b656e206f776e6572206f7220617070726f76656420666f7220616c6c000000602082015250565b6000613595603d83612cb2565b91506135a082613539565b604082019050919050565b600060208201905081810360008301526135c481613588565b9050919050565b7f4e487b7100000000000000000000000000000000000000000000000000000000600052601160045260246000fd5b600061360582612d59565b915061361083612d59565b9250828203905081811115613628576136276135cb565b5b92915050565b600061363982612d59565b915061364483612d59565b925082820190508082111561365c5761365b6135cb565b5b92915050565b7f4e487b7100000000000000000000000000000000000000000000000000000000600052603260045260246000fd5b600061369c82612d59565b91507fffffffffffffffffffffffffffffffffffffffffffffffffffffffffffffffff82036136ce576136cd6135cb565b5b600182019050919050565b7f4552433732313a2063616c6c6572206973206e6f7420746f6b656e206f776e6560008201527f72206f7220617070726f76656400000000000000000000000000000000000000602082015250565b6000613735602d83612cb2565b9150613740826136d9565b604082019050919050565b6000602082019050818103600083015261376481613728565b9050919050565b7f5072696365206d757374206265206174206c6561737420312077656900000000600082015250565b60006137a1601c83612cb2565b91506137ac8261376b565b602082019050919050565b600060208201905081810360008301526137d081613794565b9050919050565b7f5072696365206d75737420626520657175616c20746f206c697374696e67207060008201527f7269636500000000000000000000000000000000000000000000000000000000602082015250565b6000613833602483612cb2565b915061383e826137d7565b604082019050919050565b6000602082019050818103600083015261386281613826565b9050919050565b600060808201905061387e6000830187612dee565b61388b6020830186612dee565b6138986040830185612ffc565b6138a56060830184612c7d565b95945050505050565b7f4552433732313a20696e76616c696420746f6b656e2049440000000000000000600082015250565b60006138e4601883612cb2565b91506138ef826138ae565b602082019050919050565b60006020820190508181036000830152613913816138d7565b9050919050565b7f4552433732313a2061646472657373207a65726f206973206e6f74206120766160008201527f6c6964206f776e65720000000000000000000000000000000000000000000000602082015250565b6000613976602983612cb2565b91506139818261391a565b604082019050919050565b600060208201905081810360008301526139a581613969565b9050919050565b7f4f6e6c79206d61726b6574706c616365206f776e65722063616e20757064617460008201527f65206c697374696e672070726963652e00000000000000000000000000000000602082015250565b6000613a08603083612cb2565b9150613a13826139ac565b604082019050919050565b60006020820190508181036000830152613a37816139fb565b9050919050565b7f506c65617365207375626d6974207468652061736b696e67207072696365206960008201527f6e206f7264657220746f20636f6d706c65746520746865207075726368617365602082015250565b6000613a9a604083612cb2565b9150613aa582613a3e565b604082019050919050565b60006020820190508181036000830152613ac981613a8d565b9050919050565b600081905092915050565b6000613ae682612ca7565b613af08185613ad0565b9350613b00818560208601612cc3565b80840191505092915050565b6000613b188285613adb565b9150613b248284613adb565b91508190509392505050565b7f4f6e6c79206974656d206f776e65722063616e20706572666f726d207468697360008201527f206f7065726174696f6e00000000000000000000000000000000000000000000602082015250565b6000613b8c602a83612cb2565b9150613b9782613b30565b604082019050919050565b60006020820190508181036000830152613bbb81613b7f565b9050919050565b7f4552433732313a207472616e736665722066726f6d20696e636f72726563742060008201527f6f776e6572000000000000000000000000000000000000000000000000000000602082015250565b6000613c1e602583612cb2565b9150613c2982613bc2565b604082019050919050565b60006020820190508181036000830152613c4d81613c11565b9050919050565b7f4552433732313a207472616e7366657220746f20746865207a65726f2061646460008201527f7265737300000000000000000000000000000000000000000000000000000000602082015250565b6000613cb0602483612cb2565b9150613cbb82613c54565b604082019050919050565b60006020820190508181036000830152613cdf81613ca3565b9050919050565b7f4552433732313a206d696e7420746f20746865207a65726f2061646472657373600082015250565b6000613d1c602083612cb2565b9150613d2782613ce6565b602082019050919050565b60006020820190508181036000830152613d4b81613d0f565b9050919050565b7f4552433732313a20746f6b656e20616c7265616479206d696e74656400000000600082015250565b6000613d88601c83612cb2565b9150613d9382613d52565b602082019050919050565b60006020820190508181036000830152613db781613d7b565b9050919050565b7f45524337323155524953746f726167653a2055524920736574206f66206e6f6e60008201527f6578697374656e7420746f6b656e000000000000000000000000000000000000602082015250565b6000613e1a602e83612cb2565b9150613e2582613dbe565b604082019050919050565b60006020820190508181036000830152613e4981613e0d565b9050919050565b60008190508160005260206000209050919050565b60006020601f8301049050919050565b600082821b905092915050565b600060088302613eb27fffffffffffffffffffffffffffffffffffffffffffffffffffffffffffffffff82613e75565b613ebc8683613e75565b95508019841693508086168417925050509392505050565b6000819050919050565b6000613ef9613ef4613eef84612d59565b613ed4565b612d59565b9050919050565b6000819050919050565b613f1383613ede565b613f27613f1f82613f00565b848454613e82565b825550505050565b600090565b613f3c613f2f565b613f47818484613f0a565b505050565b5b81811015613f6b57613f60600082613f34565b600181019050613f4d565b5050565b601f821115613fb057613f8181613e50565b613f8a84613e65565b81016020851015613f99578190505b613fad613fa585613e65565b830182613f4c565b50505b505050565b600082821c905092915050565b6000613fd360001984600802613fb5565b1980831691505092915050565b6000613fec8383613fc2565b9150826002028217905092915050565b61400582612ca7565b67ffffffffffffffff81111561401e5761401d6130f0565b5b6140288254613476565b614033828285613f6f565b600060209050601f8311600181146140665760008415614054578287015190505b61405e8582613fe0565b8655506140c6565b601f19841661407486613e50565b60005b8281101561409c57848901518255600182019150602085019450602081019050614077565b868310156140b957848901516140b5601f891682613fc2565b8355505b6001600288020188555050505b505050505050565b7f4552433732313a20617070726f766520746f2063616c6c657200000000000000600082015250565b6000614104601983612cb2565b915061410f826140ce565b602082019050919050565b60006020820190508181036000830152614133816140f7565b9050919050565b7f4552433732313a207472616e7366657220746f206e6f6e20455243373231526560008201527f63656976657220696d706c656d656e7465720000000000000000000000000000602082015250565b6000614196603283612cb2565b91506141a18261413a565b604082019050919050565b600060208201905081810360008301526141c581614189565b9050919050565b7f436f756e7465723a2064656372656d656e74206f766572666c6f770000000000600082015250565b6000614202601b83612cb2565b915061420d826141cc565b602082019050919050565b60006020820190508181036000830152614231816141f5565b9050919050565b600081519050919050565b600082825260208201905092915050565b600061425f82614238565b6142698185614243565b9350614279818560208601612cc3565b61428281612ced565b840191505092915050565b60006080820190506142a26000830187612dee565b6142af6020830186612dee565b6142bc6040830185612ffc565b81810360608301526142ce8184614254565b905095945050505050565b6000815190506142e881612c18565b92915050565b60006020828403121561430457614303612be2565b5b6000614312848285016142d9565b91505092915050565b7f4e487b7100000000000000000000000000000000000000000000000000000000600052601260045260246000fdfea26469706673582212203c1f9a303bcfc6058b4cbe7774cb86b9c08733f5fffb071694ebd067a632a6cf64736f6c63430008110033",
  "linkReferences": {},
  "deployedLinkReferences": {}
}