{
  "_format": "hh-sol-artifact-1",
  "contractName": "NFTMarket",
  "sourceName": "contracts/NFTMarket.sol",
  "abi": [
    {
      "inputs": [],
      "stateMutability": "nonpayable",
      "type": "constructor"
    },
    {
      "anonymous": false,
      "inputs": [
        {
          "indexed": true,
          "internalType": "address",
          "name": "owner",
          "type": "address"
        },
        {
          "indexed": true,
          "internalType": "address",
          "name": "approved",
          "type": "address"
        },
        {
          "indexed": true,
          "internalType": "uint256",
          "name": "tokenId",
          "type": "uint256"
        }
      ],
      "name": "Approval",
      "type": "event"
    },
    {
      "anonymous": false,
      "inputs": [
        {
          "indexed": true,
          "internalType": "address",
          "name": "owner",
          "type": "address"
        },
        {
          "indexed": true,
          "internalType": "address",
          "name": "operator",
          "type": "address"
        },
        {
          "indexed": false,
          "internalType": "bool",
          "name": "approved",
          "type": "bool"
        }
      ],
      "name": "ApprovalForAll",
      "type": "event"
    },
    {
      "anonymous": false,
      "inputs": [
        {
          "indexed": true,
          "internalType": "uint256",
          "name": "itemId",
          "type": "uint256"
        },
        {
          "indexed": true,
          "internalType": "address",
          "name": "nftContract",
          "type": "address"
        },
        {
          "indexed": true,
          "internalType": "uint256",
          "name": "tokenId",
          "type": "uint256"
        },
        {
          "indexed": false,
          "internalType": "address",
          "name": "seller",
          "type": "address"
        },
        {
          "indexed": false,
          "internalType": "address",
          "name": "owner",
          "type": "address"
        },
        {
          "indexed": false,
          "internalType": "uint256",
          "name": "price",
          "type": "uint256"
        },
        {
          "indexed": false,
          "internalType": "bool",
          "name": "sold",
          "type": "bool"
        }
      ],
      "name": "MarketItemCreated",
      "type": "event"
    },
    {
      "anonymous": false,
      "inputs": [
        {
          "indexed": true,
          "internalType": "address",
          "name": "from",
          "type": "address"
        },
        {
          "indexed": true,
          "internalType": "address",
          "name": "to",
          "type": "address"
        },
        {
          "indexed": true,
          "internalType": "uint256",
          "name": "tokenId",
          "type": "uint256"
        }
      ],
      "name": "Transfer",
      "type": "event"
    },
    {
      "inputs": [
        {
          "internalType": "address",
          "name": "to",
          "type": "address"
        },
        {
          "internalType": "uint256",
          "name": "tokenId",
          "type": "uint256"
        }
      ],
      "name": "approve",
      "outputs": [],
      "stateMutability": "nonpayable",
      "type": "function"
    },
    {
      "inputs": [
        {
          "internalType": "address",
          "name": "owner",
          "type": "address"
        }
      ],
      "name": "balanceOf",
      "outputs": [
        {
          "internalType": "uint256",
          "name": "",
          "type": "uint256"
        }
      ],
      "stateMutability": "view",
      "type": "function"
    },
    {
      "inputs": [
        {
          "internalType": "address",
          "name": "nftContract",
          "type": "address"
        },
        {
          "internalType": "uint256",
          "name": "tokenId",
          "type": "uint256"
        },
        {
          "internalType": "uint256",
          "name": "price",
          "type": "uint256"
        }
      ],
      "name": "createMarketItem",
      "outputs": [],
      "stateMutability": "payable",
      "type": "function"
    },
    {
      "inputs": [
        {
          "internalType": "address",
          "name": "nftContract",
          "type": "address"
        },
        {
          "internalType": "uint256",
          "name": "itemId",
          "type": "uint256"
        }
      ],
      "name": "createMarketSale",
      "outputs": [],
      "stateMutability": "payable",
      "type": "function"
    },
    {
      "inputs": [],
      "name": "fetchItemsCreated",
      "outputs": [
        {
          "components": [
            {
              "internalType": "uint256",
              "name": "itemId",
              "type": "uint256"
            },
            {
              "internalType": "address",
              "name": "nftContract",
              "type": "address"
            },
            {
              "internalType": "uint256",
              "name": "tokenId",
              "type": "uint256"
            },
            {
              "internalType": "address payable",
              "name": "seller",
              "type": "address"
            },
            {
              "internalType": "address payable",
              "name": "owner",
              "type": "address"
            },
            {
              "internalType": "uint256",
              "name": "price",
              "type": "uint256"
            },
            {
              "internalType": "bool",
              "name": "sold",
              "type": "bool"
            }
          ],
          "internalType": "struct NFTMarket.MarketItem[]",
          "name": "",
          "type": "tuple[]"
        }
      ],
      "stateMutability": "view",
      "type": "function"
    },
    {
      "inputs": [],
      "name": "fetchMarketItems",
      "outputs": [
        {
          "components": [
            {
              "internalType": "uint256",
              "name": "itemId",
              "type": "uint256"
            },
            {
              "internalType": "address",
              "name": "nftContract",
              "type": "address"
            },
            {
              "internalType": "uint256",
              "name": "tokenId",
              "type": "uint256"
            },
            {
              "internalType": "address payable",
              "name": "seller",
              "type": "address"
            },
            {
              "internalType": "address payable",
              "name": "owner",
              "type": "address"
            },
            {
              "internalType": "uint256",
              "name": "price",
              "type": "uint256"
            },
            {
              "internalType": "bool",
              "name": "sold",
              "type": "bool"
            }
          ],
          "internalType": "struct NFTMarket.MarketItem[]",
          "name": "",
          "type": "tuple[]"
        }
      ],
      "stateMutability": "view",
      "type": "function"
    },
    {
      "inputs": [],
      "name": "fetchMyNFTs",
      "outputs": [
        {
          "components": [
            {
              "internalType": "uint256",
              "name": "itemId",
              "type": "uint256"
            },
            {
              "internalType": "address",
              "name": "nftContract",
              "type": "address"
            },
            {
              "internalType": "uint256",
              "name": "tokenId",
              "type": "uint256"
            },
            {
              "internalType": "address payable",
              "name": "seller",
              "type": "address"
            },
            {
              "internalType": "address payable",
              "name": "owner",
              "type": "address"
            },
            {
              "internalType": "uint256",
              "name": "price",
              "type": "uint256"
            },
            {
              "internalType": "bool",
              "name": "sold",
              "type": "bool"
            }
          ],
          "internalType": "struct NFTMarket.MarketItem[]",
          "name": "",
          "type": "tuple[]"
        }
      ],
      "stateMutability": "view",
      "type": "function"
    },
    {
      "inputs": [
        {
          "internalType": "uint256",
          "name": "tokenId",
          "type": "uint256"
        }
      ],
      "name": "getApproved",
      "outputs": [
        {
          "internalType": "address",
          "name": "",
          "type": "address"
        }
      ],
      "stateMutability": "view",
      "type": "function"
    },
    {
      "inputs": [],
      "name": "getListingPrice",
      "outputs": [
        {
          "internalType": "uint256",
          "name": "",
          "type": "uint256"
        }
      ],
      "stateMutability": "view",
      "type": "function"
    },
    {
      "inputs": [
        {
          "internalType": "address",
          "name": "owner",
          "type": "address"
        },
        {
          "internalType": "address",
          "name": "operator",
          "type": "address"
        }
      ],
      "name": "isApprovedForAll",
      "outputs": [
        {
          "internalType": "bool",
          "name": "",
          "type": "bool"
        }
      ],
      "stateMutability": "view",
      "type": "function"
    },
    {
      "inputs": [],
      "name": "name",
      "outputs": [
        {
          "internalType": "string",
          "name": "",
          "type": "string"
        }
      ],
      "stateMutability": "view",
      "type": "function"
    },
    {
      "inputs": [
        {
          "internalType": "uint256",
          "name": "tokenId",
          "type": "uint256"
        }
      ],
      "name": "ownerOf",
      "outputs": [
        {
          "internalType": "address",
          "name": "",
          "type": "address"
        }
      ],
      "stateMutability": "view",
      "type": "function"
    },
    {
      "inputs": [
        {
          "internalType": "address",
          "name": "from",
          "type": "address"
        },
        {
          "internalType": "address",
          "name": "to",
          "type": "address"
        },
        {
          "internalType": "uint256",
          "name": "tokenId",
          "type": "uint256"
        }
      ],
      "name": "safeTransferFrom",
      "outputs": [],
      "stateMutability": "nonpayable",
      "type": "function"
    },
    {
      "inputs": [
        {
          "internalType": "address",
          "name": "from",
          "type": "address"
        },
        {
          "internalType": "address",
          "name": "to",
          "type": "address"
        },
        {
          "internalType": "uint256",
          "name": "tokenId",
          "type": "uint256"
        },
        {
          "internalType": "bytes",
          "name": "data",
          "type": "bytes"
        }
      ],
      "name": "safeTransferFrom",
      "outputs": [],
      "stateMutability": "nonpayable",
      "type": "function"
    },
    {
      "inputs": [
        {
          "internalType": "address",
          "name": "operator",
          "type": "address"
        },
        {
          "internalType": "bool",
          "name": "approved",
          "type": "bool"
        }
      ],
      "name": "setApprovalForAll",
      "outputs": [],
      "stateMutability": "nonpayable",
      "type": "function"
    },
    {
      "inputs": [
        {
          "internalType": "uint256",
          "name": "_price",
          "type": "uint256"
        }
      ],
      "name": "setListingPrice",
      "outputs": [
        {
          "internalType": "uint256",
          "name": "",
          "type": "uint256"
        }
      ],
      "stateMutability": "nonpayable",
      "type": "function"
    },
    {
      "inputs": [
        {
          "internalType": "bytes4",
          "name": "interfaceId",
          "type": "bytes4"
        }
      ],
      "name": "supportsInterface",
      "outputs": [
        {
          "internalType": "bool",
          "name": "",
          "type": "bool"
        }
      ],
      "stateMutability": "view",
      "type": "function"
    },
    {
      "inputs": [],
      "name": "symbol",
      "outputs": [
        {
          "internalType": "string",
          "name": "",
          "type": "string"
        }
      ],
      "stateMutability": "view",
      "type": "function"
    },
    {
      "inputs": [
        {
          "internalType": "uint256",
          "name": "tokenId",
          "type": "uint256"
        }
      ],
      "name": "tokenURI",
      "outputs": [
        {
          "internalType": "string",
          "name": "",
          "type": "string"
        }
      ],
      "stateMutability": "view",
      "type": "function"
    },
    {
      "inputs": [
        {
          "internalType": "address",
          "name": "from",
          "type": "address"
        },
        {
          "internalType": "address",
          "name": "to",
          "type": "address"
        },
        {
          "internalType": "uint256",
          "name": "tokenId",
          "type": "uint256"
        }
      ],
      "name": "transferFrom",
      "outputs": [],
      "stateMutability": "nonpayable",
      "type": "function"
    }
  ],
  "bytecode": "0x60806040526658d15e17628000600a553480156200001c57600080fd5b506040518060400160405280601381526020017f477261706968654e46544d61726b6574446576000000000000000000000000008152506040518060400160405280600381526020017f474e4d000000000000000000000000000000000000000000000000000000000081525081600090816200009a919062000378565b508060019081620000ac919062000378565b505050600160068190555033600960006101000a81548173ffffffffffffffffffffffffffffffffffffffff021916908373ffffffffffffffffffffffffffffffffffffffff1602179055506200045f565b600081519050919050565b7f4e487b7100000000000000000000000000000000000000000000000000000000600052604160045260246000fd5b7f4e487b7100000000000000000000000000000000000000000000000000000000600052602260045260246000fd5b600060028204905060018216806200018057607f821691505b60208210810362000196576200019562000138565b5b50919050565b60008190508160005260206000209050919050565b60006020601f8301049050919050565b600082821b905092915050565b600060088302620002007fffffffffffffffffffffffffffffffffffffffffffffffffffffffffffffffff82620001c1565b6200020c8683620001c1565b95508019841693508086168417925050509392505050565b6000819050919050565b6000819050919050565b600062000259620002536200024d8462000224565b6200022e565b62000224565b9050919050565b6000819050919050565b620002758362000238565b6200028d620002848262000260565b848454620001ce565b825550505050565b600090565b620002a462000295565b620002b18184846200026a565b505050565b5b81811015620002d957620002cd6000826200029a565b600181019050620002b7565b5050565b601f8211156200032857620002f2816200019c565b620002fd84620001b1565b810160208510156200030d578190505b620003256200031c85620001b1565b830182620002b6565b50505b505050565b600082821c905092915050565b60006200034d600019846008026200032d565b1980831691505092915050565b60006200036883836200033a565b9150826002028217905092915050565b6200038382620000fe565b67ffffffffffffffff8111156200039f576200039e62000109565b5b620003ab825462000167565b620003b8828285620002dd565b600060209050601f831160018114620003f05760008415620003db578287015190505b620003e785826200035a565b86555062000457565b601f19841662000400866200019c565b60005b828110156200042a5784890151825560018201915060208501945060208101905062000403565b868310156200044a578489015162000446601f8916826200033a565b8355505b6001600288020188555050505b505050505050565b613ab9806200046f6000396000f3fe60806040526004361061011f5760003560e01c80636352211e116100a0578063b88d4fde11610064578063b88d4fde146103ec578063c23b139e14610415578063c87b56dd14610431578063e985e9c51461046e578063f064c32e146104ab5761011f565b80636352211e146102e157806370a082311461031e5780637c726b691461035b57806395d89b4114610398578063a22cb465146103c35761011f565b806312e85585116100e757806312e855851461021d578063202e37401461024857806323b872dd1461027357806342842e0e1461029c57806358eb2df5146102c55761011f565b806301ffc9a71461012457806306fdde0314610161578063081812fc1461018c578063095ea7b3146101c95780630f08efe0146101f2575b600080fd5b34801561013057600080fd5b5061014b60048036038101906101469190612907565b6104d6565b604051610158919061294f565b60405180910390f35b34801561016d57600080fd5b506101766105b8565b60405161018391906129fa565b60405180910390f35b34801561019857600080fd5b506101b360048036038101906101ae9190612a52565b61064a565b6040516101c09190612ac0565b60405180910390f35b3480156101d557600080fd5b506101f060048036038101906101eb9190612b07565b610690565b005b3480156101fe57600080fd5b506102076107a7565b6040516102149190612cd2565b60405180910390f35b34801561022957600080fd5b50610232610a86565b60405161023f9190612d03565b60405180910390f35b34801561025457600080fd5b5061025d610a90565b60405161026a9190612cd2565b60405180910390f35b34801561027f57600080fd5b5061029a60048036038101906102959190612d1e565b610df2565b005b3480156102a857600080fd5b506102c360048036038101906102be9190612d1e565b610e52565b005b6102df60048036038101906102da9190612d71565b610e72565b005b3480156102ed57600080fd5b5061030860048036038101906103039190612a52565b611190565b6040516103159190612ac0565b60405180910390f35b34801561032a57600080fd5b5061034560048036038101906103409190612dc4565b611216565b6040516103529190612d03565b60405180910390f35b34801561036757600080fd5b50610382600480360381019061037d9190612a52565b6112cd565b60405161038f9190612d03565b60405180910390f35b3480156103a457600080fd5b506103ad611314565b6040516103ba91906129fa565b60405180910390f35b3480156103cf57600080fd5b506103ea60048036038101906103e59190612e1d565b6113a6565b005b3480156103f857600080fd5b50610413600480360381019061040e9190612f92565b6113bc565b005b61042f600480360381019061042a9190612b07565b61141e565b005b34801561043d57600080fd5b5061045860048036038101906104539190612a52565b6116e7565b60405161046591906129fa565b60405180910390f35b34801561047a57600080fd5b5061049560048036038101906104909190613015565b61174f565b6040516104a2919061294f565b60405180910390f35b3480156104b757600080fd5b506104c06117e3565b6040516104cd9190612cd2565b60405180910390f35b60007f80ac58cd000000000000000000000000000000000000000000000000000000007bffffffffffffffffffffffffffffffffffffffffffffffffffffffff1916827bffffffffffffffffffffffffffffffffffffffffffffffffffffffff191614806105a157507f5b5e139f000000000000000000000000000000000000000000000000000000007bffffffffffffffffffffffffffffffffffffffffffffffffffffffff1916827bffffffffffffffffffffffffffffffffffffffffffffffffffffffff1916145b806105b157506105b082611b45565b5b9050919050565b6060600080546105c790613084565b80601f01602080910402602001604051908101604052809291908181526020018280546105f390613084565b80156106405780601f1061061557610100808354040283529160200191610640565b820191906000526020600020905b81548152906001019060200180831161062357829003601f168201915b5050505050905090565b600061065582611baf565b6004600083815260200190815260200160002060009054906101000a900473ffffffffffffffffffffffffffffffffffffffff169050919050565b600061069b82611190565b90508073ffffffffffffffffffffffffffffffffffffffff168373ffffffffffffffffffffffffffffffffffffffff160361070b576040517f08c379a000000000000000000000000000000000000000000000000000000000815260040161070290613127565b60405180910390fd5b8073ffffffffffffffffffffffffffffffffffffffff1661072a611bfa565b73ffffffffffffffffffffffffffffffffffffffff161480610759575061075881610753611bfa565b61174f565b5b610798576040517f08c379a000000000000000000000000000000000000000000000000000000000815260040161078f906131b9565b60405180910390fd5b6107a28383611c02565b505050565b606060006107b56007611cbb565b905060006107c36008611cbb565b6107cd6007611cbb565b6107d79190613208565b90506000808267ffffffffffffffff8111156107f6576107f5612e67565b5b60405190808252806020026020018201604052801561082f57816020015b61081c61281a565b8152602001906001900390816108145790505b50905060005b84811015610a7b57600073ffffffffffffffffffffffffffffffffffffffff16600b6000600184610866919061323c565b815260200190815260200160002060040160009054906101000a900473ffffffffffffffffffffffffffffffffffffffff1673ffffffffffffffffffffffffffffffffffffffff1603610a68576000600b60006001846108c6919061323c565b81526020019081526020016000206000015490506000600b60008381526020019081526020016000209050806040518060e0016040529081600082015481526020016001820160009054906101000a900473ffffffffffffffffffffffffffffffffffffffff1673ffffffffffffffffffffffffffffffffffffffff1673ffffffffffffffffffffffffffffffffffffffff168152602001600282015481526020016003820160009054906101000a900473ffffffffffffffffffffffffffffffffffffffff1673ffffffffffffffffffffffffffffffffffffffff1673ffffffffffffffffffffffffffffffffffffffff1681526020016004820160009054906101000a900473ffffffffffffffffffffffffffffffffffffffff1673ffffffffffffffffffffffffffffffffffffffff1673ffffffffffffffffffffffffffffffffffffffff168152602001600582015481526020016006820160009054906101000a900460ff161515151581525050848681518110610a4b57610a4a613270565b5b6020026020010181905250600185610a63919061323c565b945050505b8080610a739061329f565b915050610835565b508094505050505090565b6000600a54905090565b60606000610a9e6007611cbb565b905060008060005b83811015610b46573373ffffffffffffffffffffffffffffffffffffffff16600b6000600184610ad6919061323c565b815260200190815260200160002060040160009054906101000a900473ffffffffffffffffffffffffffffffffffffffff1673ffffffffffffffffffffffffffffffffffffffff1603610b3357600183610b30919061323c565b92505b8080610b3e9061329f565b915050610aa6565b5060008267ffffffffffffffff811115610b6357610b62612e67565b5b604051908082528060200260200182016040528015610b9c57816020015b610b8961281a565b815260200190600190039081610b815790505b50905060005b84811015610de7573373ffffffffffffffffffffffffffffffffffffffff16600b6000600184610bd2919061323c565b815260200190815260200160002060040160009054906101000a900473ffffffffffffffffffffffffffffffffffffffff1673ffffffffffffffffffffffffffffffffffffffff1603610dd4576000600b6000600184610c32919061323c565b81526020019081526020016000206000015490506000600b60008381526020019081526020016000209050806040518060e0016040529081600082015481526020016001820160009054906101000a900473ffffffffffffffffffffffffffffffffffffffff1673ffffffffffffffffffffffffffffffffffffffff1673ffffffffffffffffffffffffffffffffffffffff168152602001600282015481526020016003820160009054906101000a900473ffffffffffffffffffffffffffffffffffffffff1673ffffffffffffffffffffffffffffffffffffffff1673ffffffffffffffffffffffffffffffffffffffff1681526020016004820160009054906101000a900473ffffffffffffffffffffffffffffffffffffffff1673ffffffffffffffffffffffffffffffffffffffff1673ffffffffffffffffffffffffffffffffffffffff168152602001600582015481526020016006820160009054906101000a900460ff161515151581525050848681518110610db757610db6613270565b5b6020026020010181905250600185610dcf919061323c565b945050505b8080610ddf9061329f565b915050610ba2565b508094505050505090565b610e03610dfd611bfa565b82611cc9565b610e42576040517f08c379a0000000000000000000000000000000000000000000000000000000008152600401610e3990613359565b60405180910390fd5b610e4d838383611d5e565b505050565b610e6d838383604051806020016040528060008152506113bc565b505050565b610e7a612057565b60008111610ebd576040517f08c379a0000000000000000000000000000000000000000000000000000000008152600401610eb4906133c5565b60405180910390fd5b600a543414610f01576040517f08c379a0000000000000000000000000000000000000000000000000000000008152600401610ef890613457565b60405180910390fd5b610f0b60076120a6565b6000610f176007611cbb565b90506040518060e001604052808281526020018573ffffffffffffffffffffffffffffffffffffffff1681526020018481526020013373ffffffffffffffffffffffffffffffffffffffff168152602001600073ffffffffffffffffffffffffffffffffffffffff16815260200183815260200160001515815250600b60008381526020019081526020016000206000820151816000015560208201518160010160006101000a81548173ffffffffffffffffffffffffffffffffffffffff021916908373ffffffffffffffffffffffffffffffffffffffff1602179055506040820151816002015560608201518160030160006101000a81548173ffffffffffffffffffffffffffffffffffffffff021916908373ffffffffffffffffffffffffffffffffffffffff16021790555060808201518160040160006101000a81548173ffffffffffffffffffffffffffffffffffffffff021916908373ffffffffffffffffffffffffffffffffffffffff16021790555060a0820151816005015560c08201518160060160006101000a81548160ff0219169083151502179055509050508373ffffffffffffffffffffffffffffffffffffffff166323b872dd3330866040518463ffffffff1660e01b81526004016110f893929190613477565b600060405180830381600087803b15801561111257600080fd5b505af1158015611126573d6000803e3d6000fd5b50505050828473ffffffffffffffffffffffffffffffffffffffff16827f045dfa01dcba2b36aba1d3dc4a874f4b0c5d2fbeb8d2c4b34a7d88c8d8f929d133600087600060405161117a94939291906134ae565b60405180910390a45061118b6120bc565b505050565b60008061119c836120c6565b9050600073ffffffffffffffffffffffffffffffffffffffff168173ffffffffffffffffffffffffffffffffffffffff160361120d576040517f08c379a00000000000000000000000000000000000000000000000000000000081526004016112049061353f565b60405180910390fd5b80915050919050565b60008073ffffffffffffffffffffffffffffffffffffffff168273ffffffffffffffffffffffffffffffffffffffff1603611286576040517f08c379a000000000000000000000000000000000000000000000000000000000815260040161127d906135d1565b60405180910390fd5b600360008373ffffffffffffffffffffffffffffffffffffffff1673ffffffffffffffffffffffffffffffffffffffff168152602001908152602001600020549050919050565b60003073ffffffffffffffffffffffffffffffffffffffff163373ffffffffffffffffffffffffffffffffffffffff160361130a5781600a819055505b600a549050919050565b60606001805461132390613084565b80601f016020809104026020016040519081016040528092919081815260200182805461134f90613084565b801561139c5780601f106113715761010080835404028352916020019161139c565b820191906000526020600020905b81548152906001019060200180831161137f57829003601f168201915b5050505050905090565b6113b86113b1611bfa565b8383612103565b5050565b6113cd6113c7611bfa565b83611cc9565b61140c576040517f08c379a000000000000000000000000000000000000000000000000000000000815260040161140390613359565b60405180910390fd5b6114188484848461226f565b50505050565b611426612057565b6000600b60008381526020019081526020016000206005015490506000600b600084815260200190815260200160002060020154905081341461149e576040517f08c379a000000000000000000000000000000000000000000000000000000000815260040161149590613663565b60405180910390fd5b33600b600085815260200190815260200160002060040160006101000a81548173ffffffffffffffffffffffffffffffffffffffff021916908373ffffffffffffffffffffffffffffffffffffffff1602179055506001600b600085815260200190815260200160002060060160006101000a81548160ff0219169083151502179055506000600b600085815260200190815260200160002060030160006101000a81548173ffffffffffffffffffffffffffffffffffffffff021916908373ffffffffffffffffffffffffffffffffffffffff16021790555061158260086120a6565b8373ffffffffffffffffffffffffffffffffffffffff166323b872dd3033846040518463ffffffff1660e01b81526004016115bf93929190613477565b600060405180830381600087803b1580156115d957600080fd5b505af11580156115ed573d6000803e3d6000fd5b50505050600960009054906101000a900473ffffffffffffffffffffffffffffffffffffffff1673ffffffffffffffffffffffffffffffffffffffff166108fc600a549081150290604051600060405180830381858888f1935050505015801561165b573d6000803e3d6000fd5b50600b600084815260200190815260200160002060030160009054906101000a900473ffffffffffffffffffffffffffffffffffffffff1673ffffffffffffffffffffffffffffffffffffffff166108fc349081150290604051600060405180830381858888f193505050501580156116d8573d6000803e3d6000fd5b5050506116e36120bc565b5050565b60606116f282611baf565b60006116fc6122cb565b9050600081511161171c5760405180602001604052806000815250611747565b80611726846122e2565b6040516020016117379291906136bf565b6040516020818303038152906040525b915050919050565b6000600560008473ffffffffffffffffffffffffffffffffffffffff1673ffffffffffffffffffffffffffffffffffffffff16815260200190815260200160002060008373ffffffffffffffffffffffffffffffffffffffff1673ffffffffffffffffffffffffffffffffffffffff16815260200190815260200160002060009054906101000a900460ff16905092915050565b606060006117f16007611cbb565b905060008060005b83811015611899573373ffffffffffffffffffffffffffffffffffffffff16600b6000600184611829919061323c565b815260200190815260200160002060030160009054906101000a900473ffffffffffffffffffffffffffffffffffffffff1673ffffffffffffffffffffffffffffffffffffffff160361188657600183611883919061323c565b92505b80806118919061329f565b9150506117f9565b5060008267ffffffffffffffff8111156118b6576118b5612e67565b5b6040519080825280602002602001820160405280156118ef57816020015b6118dc61281a565b8152602001906001900390816118d45790505b50905060005b84811015611b3a573373ffffffffffffffffffffffffffffffffffffffff16600b6000600184611925919061323c565b815260200190815260200160002060030160009054906101000a900473ffffffffffffffffffffffffffffffffffffffff1673ffffffffffffffffffffffffffffffffffffffff1603611b27576000600b6000600184611985919061323c565b81526020019081526020016000206000015490506000600b60008381526020019081526020016000209050806040518060e0016040529081600082015481526020016001820160009054906101000a900473ffffffffffffffffffffffffffffffffffffffff1673ffffffffffffffffffffffffffffffffffffffff1673ffffffffffffffffffffffffffffffffffffffff168152602001600282015481526020016003820160009054906101000a900473ffffffffffffffffffffffffffffffffffffffff1673ffffffffffffffffffffffffffffffffffffffff1673ffffffffffffffffffffffffffffffffffffffff1681526020016004820160009054906101000a900473ffffffffffffffffffffffffffffffffffffffff1673ffffffffffffffffffffffffffffffffffffffff1673ffffffffffffffffffffffffffffffffffffffff168152602001600582015481526020016006820160009054906101000a900460ff161515151581525050848681518110611b0a57611b09613270565b5b6020026020010181905250600185611b22919061323c565b945050505b8080611b329061329f565b9150506118f5565b508094505050505090565b60007f01ffc9a7000000000000000000000000000000000000000000000000000000007bffffffffffffffffffffffffffffffffffffffffffffffffffffffff1916827bffffffffffffffffffffffffffffffffffffffffffffffffffffffff1916149050919050565b611bb8816123b0565b611bf7576040517f08c379a0000000000000000000000000000000000000000000000000000000008152600401611bee9061353f565b60405180910390fd5b50565b600033905090565b816004600083815260200190815260200160002060006101000a81548173ffffffffffffffffffffffffffffffffffffffff021916908373ffffffffffffffffffffffffffffffffffffffff160217905550808273ffffffffffffffffffffffffffffffffffffffff16611c7583611190565b73ffffffffffffffffffffffffffffffffffffffff167f8c5be1e5ebec7d5bd14f71427d1e84f3dd0314c0f7b2291e5b200ac8c7c3b92560405160405180910390a45050565b600081600001549050919050565b600080611cd583611190565b90508073ffffffffffffffffffffffffffffffffffffffff168473ffffffffffffffffffffffffffffffffffffffff161480611d175750611d16818561174f565b5b80611d5557508373ffffffffffffffffffffffffffffffffffffffff16611d3d8461064a565b73ffffffffffffffffffffffffffffffffffffffff16145b91505092915050565b8273ffffffffffffffffffffffffffffffffffffffff16611d7e82611190565b73ffffffffffffffffffffffffffffffffffffffff1614611dd4576040517f08c379a0000000000000000000000000000000000000000000000000000000008152600401611dcb90613755565b60405180910390fd5b600073ffffffffffffffffffffffffffffffffffffffff168273ffffffffffffffffffffffffffffffffffffffff1603611e43576040517f08c379a0000000000000000000000000000000000000000000000000000000008152600401611e3a906137e7565b60405180910390fd5b611e5083838360016123f1565b8273ffffffffffffffffffffffffffffffffffffffff16611e7082611190565b73ffffffffffffffffffffffffffffffffffffffff1614611ec6576040517f08c379a0000000000000000000000000000000000000000000000000000000008152600401611ebd90613755565b60405180910390fd5b6004600082815260200190815260200160002060006101000a81549073ffffffffffffffffffffffffffffffffffffffff02191690556001600360008573ffffffffffffffffffffffffffffffffffffffff1673ffffffffffffffffffffffffffffffffffffffff168152602001908152602001600020600082825403925050819055506001600360008473ffffffffffffffffffffffffffffffffffffffff1673ffffffffffffffffffffffffffffffffffffffff16815260200190815260200160002060008282540192505081905550816002600083815260200190815260200160002060006101000a81548173ffffffffffffffffffffffffffffffffffffffff021916908373ffffffffffffffffffffffffffffffffffffffff160217905550808273ffffffffffffffffffffffffffffffffffffffff168473ffffffffffffffffffffffffffffffffffffffff167fddf252ad1be2c89b69c2b068fc378daa952ba7f163c4a11628f55a4df523b3ef60405160405180910390a46120528383836001612517565b505050565b60026006540361209c576040517f08c379a000000000000000000000000000000000000000000000000000000000815260040161209390613853565b60405180910390fd5b6002600681905550565b6001816000016000828254019250508190555050565b6001600681905550565b60006002600083815260200190815260200160002060009054906101000a900473ffffffffffffffffffffffffffffffffffffffff169050919050565b8173ffffffffffffffffffffffffffffffffffffffff168373ffffffffffffffffffffffffffffffffffffffff1603612171576040517f08c379a0000000000000000000000000000000000000000000000000000000008152600401612168906138bf565b60405180910390fd5b80600560008573ffffffffffffffffffffffffffffffffffffffff1673ffffffffffffffffffffffffffffffffffffffff16815260200190815260200160002060008473ffffffffffffffffffffffffffffffffffffffff1673ffffffffffffffffffffffffffffffffffffffff16815260200190815260200160002060006101000a81548160ff0219169083151502179055508173ffffffffffffffffffffffffffffffffffffffff168373ffffffffffffffffffffffffffffffffffffffff167f17307eab39ab6107e8899845ad3d59bd9653f200f220920489ca2b5937696c3183604051612262919061294f565b60405180910390a3505050565b61227a848484611d5e565b6122868484848461251d565b6122c5576040517f08c379a00000000000000000000000000000000000000000000000000000000081526004016122bc90613951565b60405180910390fd5b50505050565b606060405180602001604052806000815250905090565b6060600060016122f1846126a4565b01905060008167ffffffffffffffff8111156123105761230f612e67565b5b6040519080825280601f01601f1916602001820160405280156123425781602001600182028036833780820191505090505b509050600082602001820190505b6001156123a5578080600190039150507f3031323334353637383961626364656600000000000000000000000000000000600a86061a8153600a858161239957612398613971565b5b04945060008503612350575b819350505050919050565b60008073ffffffffffffffffffffffffffffffffffffffff166123d2836120c6565b73ffffffffffffffffffffffffffffffffffffffff1614159050919050565b600181111561251157600073ffffffffffffffffffffffffffffffffffffffff168473ffffffffffffffffffffffffffffffffffffffff16146124855780600360008673ffffffffffffffffffffffffffffffffffffffff1673ffffffffffffffffffffffffffffffffffffffff168152602001908152602001600020600082825461247d9190613208565b925050819055505b600073ffffffffffffffffffffffffffffffffffffffff168373ffffffffffffffffffffffffffffffffffffffff16146125105780600360008573ffffffffffffffffffffffffffffffffffffffff1673ffffffffffffffffffffffffffffffffffffffff1681526020019081526020016000206000828254612508919061323c565b925050819055505b5b50505050565b50505050565b600061253e8473ffffffffffffffffffffffffffffffffffffffff166127f7565b15612697578373ffffffffffffffffffffffffffffffffffffffff1663150b7a02612567611bfa565b8786866040518563ffffffff1660e01b815260040161258994939291906139f5565b6020604051808303816000875af19250505080156125c557506040513d601f19601f820116820180604052508101906125c29190613a56565b60015b612647573d80600081146125f5576040519150601f19603f3d011682016040523d82523d6000602084013e6125fa565b606091505b50600081510361263f576040517f08c379a000000000000000000000000000000000000000000000000000000000815260040161263690613951565b60405180910390fd5b805181602001fd5b63150b7a0260e01b7bffffffffffffffffffffffffffffffffffffffffffffffffffffffff1916817bffffffffffffffffffffffffffffffffffffffffffffffffffffffff19161491505061269c565b600190505b949350505050565b600080600090507a184f03e93ff9f4daa797ed6e38ed64bf6a1f0100000000000000008310612702577a184f03e93ff9f4daa797ed6e38ed64bf6a1f01000000000000000083816126f8576126f7613971565b5b0492506040810190505b6d04ee2d6d415b85acef8100000000831061273f576d04ee2d6d415b85acef8100000000838161273557612734613971565b5b0492506020810190505b662386f26fc10000831061276e57662386f26fc10000838161276457612763613971565b5b0492506010810190505b6305f5e1008310612797576305f5e100838161278d5761278c613971565b5b0492506008810190505b61271083106127bc5761271083816127b2576127b1613971565b5b0492506004810190505b606483106127df57606483816127d5576127d4613971565b5b0492506002810190505b600a83106127ee576001810190505b80915050919050565b6000808273ffffffffffffffffffffffffffffffffffffffff163b119050919050565b6040518060e0016040528060008152602001600073ffffffffffffffffffffffffffffffffffffffff16815260200160008152602001600073ffffffffffffffffffffffffffffffffffffffff168152602001600073ffffffffffffffffffffffffffffffffffffffff168152602001600081526020016000151581525090565b6000604051905090565b600080fd5b600080fd5b60007fffffffff0000000000000000000000000000000000000000000000000000000082169050919050565b6128e4816128af565b81146128ef57600080fd5b50565b600081359050612901816128db565b92915050565b60006020828403121561291d5761291c6128a5565b5b600061292b848285016128f2565b91505092915050565b60008115159050919050565b61294981612934565b82525050565b60006020820190506129646000830184612940565b92915050565b600081519050919050565b600082825260208201905092915050565b60005b838110156129a4578082015181840152602081019050612989565b60008484015250505050565b6000601f19601f8301169050919050565b60006129cc8261296a565b6129d68185612975565b93506129e6818560208601612986565b6129ef816129b0565b840191505092915050565b60006020820190508181036000830152612a1481846129c1565b905092915050565b6000819050919050565b612a2f81612a1c565b8114612a3a57600080fd5b50565b600081359050612a4c81612a26565b92915050565b600060208284031215612a6857612a676128a5565b5b6000612a7684828501612a3d565b91505092915050565b600073ffffffffffffffffffffffffffffffffffffffff82169050919050565b6000612aaa82612a7f565b9050919050565b612aba81612a9f565b82525050565b6000602082019050612ad56000830184612ab1565b92915050565b612ae481612a9f565b8114612aef57600080fd5b50565b600081359050612b0181612adb565b92915050565b60008060408385031215612b1e57612b1d6128a5565b5b6000612b2c85828601612af2565b9250506020612b3d85828601612a3d565b9150509250929050565b600081519050919050565b600082825260208201905092915050565b6000819050602082019050919050565b612b7c81612a1c565b82525050565b612b8b81612a9f565b82525050565b6000612b9c82612a7f565b9050919050565b612bac81612b91565b82525050565b612bbb81612934565b82525050565b60e082016000820151612bd76000850182612b73565b506020820151612bea6020850182612b82565b506040820151612bfd6040850182612b73565b506060820151612c106060850182612ba3565b506080820151612c236080850182612ba3565b5060a0820151612c3660a0850182612b73565b5060c0820151612c4960c0850182612bb2565b50505050565b6000612c5b8383612bc1565b60e08301905092915050565b6000602082019050919050565b6000612c7f82612b47565b612c898185612b52565b9350612c9483612b63565b8060005b83811015612cc5578151612cac8882612c4f565b9750612cb783612c67565b925050600181019050612c98565b5085935050505092915050565b60006020820190508181036000830152612cec8184612c74565b905092915050565b612cfd81612a1c565b82525050565b6000602082019050612d186000830184612cf4565b92915050565b600080600060608486031215612d3757612d366128a5565b5b6000612d4586828701612af2565b9350506020612d5686828701612af2565b9250506040612d6786828701612a3d565b9150509250925092565b600080600060608486031215612d8a57612d896128a5565b5b6000612d9886828701612af2565b9350506020612da986828701612a3d565b9250506040612dba86828701612a3d565b9150509250925092565b600060208284031215612dda57612dd96128a5565b5b6000612de884828501612af2565b91505092915050565b612dfa81612934565b8114612e0557600080fd5b50565b600081359050612e1781612df1565b92915050565b60008060408385031215612e3457612e336128a5565b5b6000612e4285828601612af2565b9250506020612e5385828601612e08565b9150509250929050565b600080fd5b600080fd5b7f4e487b7100000000000000000000000000000000000000000000000000000000600052604160045260246000fd5b612e9f826129b0565b810181811067ffffffffffffffff82111715612ebe57612ebd612e67565b5b80604052505050565b6000612ed161289b565b9050612edd8282612e96565b919050565b600067ffffffffffffffff821115612efd57612efc612e67565b5b612f06826129b0565b9050602081019050919050565b82818337600083830152505050565b6000612f35612f3084612ee2565b612ec7565b905082815260208101848484011115612f5157612f50612e62565b5b612f5c848285612f13565b509392505050565b600082601f830112612f7957612f78612e5d565b5b8135612f89848260208601612f22565b91505092915050565b60008060008060808587031215612fac57612fab6128a5565b5b6000612fba87828801612af2565b9450506020612fcb87828801612af2565b9350506040612fdc87828801612a3d565b925050606085013567ffffffffffffffff811115612ffd57612ffc6128aa565b5b61300987828801612f64565b91505092959194509250565b6000806040838503121561302c5761302b6128a5565b5b600061303a85828601612af2565b925050602061304b85828601612af2565b9150509250929050565b7f4e487b7100000000000000000000000000000000000000000000000000000000600052602260045260246000fd5b6000600282049050600182168061309c57607f821691505b6020821081036130af576130ae613055565b5b50919050565b7f4552433732313a20617070726f76616c20746f2063757272656e74206f776e6560008201527f7200000000000000000000000000000000000000000000000000000000000000602082015250565b6000613111602183612975565b915061311c826130b5565b604082019050919050565b6000602082019050818103600083015261314081613104565b9050919050565b7f4552433732313a20617070726f76652063616c6c6572206973206e6f7420746f60008201527f6b656e206f776e6572206f7220617070726f76656420666f7220616c6c000000602082015250565b60006131a3603d83612975565b91506131ae82613147565b604082019050919050565b600060208201905081810360008301526131d281613196565b9050919050565b7f4e487b7100000000000000000000000000000000000000000000000000000000600052601160045260246000fd5b600061321382612a1c565b915061321e83612a1c565b9250828203905081811115613236576132356131d9565b5b92915050565b600061324782612a1c565b915061325283612a1c565b925082820190508082111561326a576132696131d9565b5b92915050565b7f4e487b7100000000000000000000000000000000000000000000000000000000600052603260045260246000fd5b60006132aa82612a1c565b91507fffffffffffffffffffffffffffffffffffffffffffffffffffffffffffffffff82036132dc576132db6131d9565b5b600182019050919050565b7f4552433732313a2063616c6c6572206973206e6f7420746f6b656e206f776e6560008201527f72206f7220617070726f76656400000000000000000000000000000000000000602082015250565b6000613343602d83612975565b915061334e826132e7565b604082019050919050565b6000602082019050818103600083015261337281613336565b9050919050565b7f5072696365206d7573742062652061626f7665207a65726f0000000000000000600082015250565b60006133af601883612975565b91506133ba82613379565b602082019050919050565b600060208201905081810360008301526133de816133a2565b9050919050565b7f5072696365206d75737420626520657175616c20746f206c697374696e67207060008201527f7269636500000000000000000000000000000000000000000000000000000000602082015250565b6000613441602483612975565b915061344c826133e5565b604082019050919050565b6000602082019050818103600083015261347081613434565b9050919050565b600060608201905061348c6000830186612ab1565b6134996020830185612ab1565b6134a66040830184612cf4565b949350505050565b60006080820190506134c36000830187612ab1565b6134d06020830186612ab1565b6134dd6040830185612cf4565b6134ea6060830184612940565b95945050505050565b7f4552433732313a20696e76616c696420746f6b656e2049440000000000000000600082015250565b6000613529601883612975565b9150613534826134f3565b602082019050919050565b600060208201905081810360008301526135588161351c565b9050919050565b7f4552433732313a2061646472657373207a65726f206973206e6f74206120766160008201527f6c6964206f776e65720000000000000000000000000000000000000000000000602082015250565b60006135bb602983612975565b91506135c68261355f565b604082019050919050565b600060208201905081810360008301526135ea816135ae565b9050919050565b7f506c65617365207375626d6974207468652061736b696e67207072696365206960008201527f6e206f7264657220746f20636f6d706c65746520707572636861736500000000602082015250565b600061364d603c83612975565b9150613658826135f1565b604082019050919050565b6000602082019050818103600083015261367c81613640565b9050919050565b600081905092915050565b60006136998261296a565b6136a38185613683565b93506136b3818560208601612986565b80840191505092915050565b60006136cb828561368e565b91506136d7828461368e565b91508190509392505050565b7f4552433732313a207472616e736665722066726f6d20696e636f72726563742060008201527f6f776e6572000000000000000000000000000000000000000000000000000000602082015250565b600061373f602583612975565b915061374a826136e3565b604082019050919050565b6000602082019050818103600083015261376e81613732565b9050919050565b7f4552433732313a207472616e7366657220746f20746865207a65726f2061646460008201527f7265737300000000000000000000000000000000000000000000000000000000602082015250565b60006137d1602483612975565b91506137dc82613775565b604082019050919050565b60006020820190508181036000830152613800816137c4565b9050919050565b7f5265656e7472616e637947756172643a207265656e7472616e742063616c6c00600082015250565b600061383d601f83612975565b915061384882613807565b602082019050919050565b6000602082019050818103600083015261386c81613830565b9050919050565b7f4552433732313a20617070726f766520746f2063616c6c657200000000000000600082015250565b60006138a9601983612975565b91506138b482613873565b602082019050919050565b600060208201905081810360008301526138d88161389c565b9050919050565b7f4552433732313a207472616e7366657220746f206e6f6e20455243373231526560008201527f63656976657220696d706c656d656e7465720000000000000000000000000000602082015250565b600061393b603283612975565b9150613946826138df565b604082019050919050565b6000602082019050818103600083015261396a8161392e565b9050919050565b7f4e487b7100000000000000000000000000000000000000000000000000000000600052601260045260246000fd5b600081519050919050565b600082825260208201905092915050565b60006139c7826139a0565b6139d181856139ab565b93506139e1818560208601612986565b6139ea816129b0565b840191505092915050565b6000608082019050613a0a6000830187612ab1565b613a176020830186612ab1565b613a246040830185612cf4565b8181036060830152613a3681846139bc565b905095945050505050565b600081519050613a50816128db565b92915050565b600060208284031215613a6c57613a6b6128a5565b5b6000613a7a84828501613a41565b9150509291505056fea26469706673582212206c938afc4e778a597b2184e3bc49ff572f15ec14b14e8357379da38320dad00f64736f6c63430008110033",
  "linkReferences": {},
  "deployedLinkReferences": {}
}